:020000040000fa
:080000000001040000000000f3
:020000040000fa
:1000080090010000900100009001000090010000a4
:100018009001000090010000900100009001000094
:100028009001000090010000900100009001000084
:100038009001000090010000900100009001000074
:100048009001000090010000900100009001000064
:100058009001000090010000900100009001000054
:100068009001000090010000900100009001000044
:100078009001000090010000900100009001000034
:100088009001000090010000900100009001000024
:100098009001000090010000900100009001000014
:1000a8009001000090010000900100009001000004
:1000b80090010000900100009001000090010000f4
:1000c80090010000900100009001000090010000e4
:1000d80090010000900100009001000090010000d4
:1000e80090010000900100009001000090010000c4
:0800f8009001000090010000de
:020000040000fa
:1001080090010000900100009001000090010000a3
:100118009001000090010000900100009001000093
:100128009001000090010000900100009001000083
:100138009001000090010000900100009001000073
:100148009001000090010000900100009001000063
:100158009001000090010000900100009001000053
:100168009001000090010000900100009001000043
:100178009001000090010000900100009001000033
:100188009001000090010000900100009001000023
:100198009001000090010000900100009001000013
:1001a8009001000090010000900100009001000003
:1001b80090010000900100009001000090010000f3
:1001c80090010000900100009001000090010000e3
:1001d80090010000900100009001000090010000d3
:1001e80090010000900100009001000090010000c3
:0801f8009001000090010000dd
:020000040000fa
:100200008fa520000eff20000e01880000000000d6
:100210000c000700a0ca2100010020001100070007
:10022000000020000000e000020032000000020098
:1002300000000000601e0200000000000040da0024
:100240000000fe004440a900a00220000000e000e1
:100250000300320000002000a00188004440a800f4
:100260000000060091018800800078000000eb008b
:1002700015003700e280400032a0b4009101ba00be
:10028000e280400032a0b4009102ba00e280400057
:1002900032a0b4000002eb00472bde00f507b200ed
:1002a000602ce10004003a000059eb008301e900f2
:1002b000fdff3e00040037006128e100010032002c
:1002c0000082eb00040007001101ba000200e00008
:1002d000e8ff3a00000006003159ba008301e90046
:1002e0000c0032002159ba008301e90008003200f5
:1002f0000400e00003003a00e280400032a0b400b5
:10030000f5ff370011d9ba008301e900faff3a007e
:100310008100e800e180400032a0b4000000060047
:100320000040da000000fe0003f0a200889fbe003b
:100330008a9fbe008c1f7800ef000700f600330094
:100340006450e1004f0032006420e10052003200ae
:1003500003826c0007003b000905d0000306d000b3
:10036000820f54000c065d000200390002003200ca
:1003700089017800030678008582550004003d005d
:100380000003fd008103fd008502ea008b85420029
:10039000840f720002003b0060001000e080180033
:1003a0006011b8000005eb007a28e1000a0039006e
:1003b00006007800c75ddd00f707b2008780750092
:1003c0002d003700828171000a017800610560000c
:1003d0008180d1000080d3008502e900f9ff3b0055
:1003e000060440008784480002003b0060041400bb
:1003f000e0841c000988a300070032008a81710094
:1004000082817100610164008904d1000884d300f5
:100410008b05e800170037000978a30013003a00a5
:100420000b00e000130034008b05e90008044400d1
:1004300089844c000a4474000978a3000d003a0036
:100440000b00e000070034008b05e90008044400bd
:1004500089844c0001003a000b0020000978a300b9
:10046000f7ff32000001eb000200370082817100cb
:100470000a0178007a0007000cf0a70001f0a00044
:10048000ae0037006420e10002003a00838f6c0068
:10049000ae0033000801be000200be00a700370016
:1004a000889fbe008a9fbe008c1f780092000700c4
:1004b0009900330003866c006450e1002e00320086
:1004c0006420e100330032006150e1002f0032006f
:1004d0006120e1003100320085855500eb07b00056
:1004e000090020000804200005003700080444002b
:1004f00089844c000a0031000603430087834b00c7
:100500000001530081815b00f8ff33000203be004d
:100510000800a0000804440089844c00f6ff39005c
:10052000c639dd0083017300010032001300200092
:100530008904d1000884d3000998a3000500320083
:100540000800a7000300a0008904d1000884d3009c
:100550008b05e8008904d1000884d3000001eb007a
:100560000281d2003e00070001f0a1000cf0a700bc
:1005700001f0a000710037006420e1007300320038
:100580000801be000200be00f7ff37006120e10055
:100590006e0032006000b800f3ff3700000020005a
:1005a00001f82700f0ff3700881f78000104780069
:1005b0000100e00005003d0060001000e080180030
:1005c00002003b0001f02c0003003700040007008c
:1005d00008f0a70001f0a0004f047800000006001a
:1005e000889fbe008a9fbe00010578000000e000e1
:1005f000180032000004be006011b8006b09200032
:100600000982cf00020039000882cf000441b00007
:10061000694252000e00320008003b0082817100e6
:10062000610164008904d1000884d3008b05e800cf
:100630000442e800f9ff3a000500370008044400ce
:1006400089844c008b05e9000442e900fbff3a0075
:10065000030007004f05be004f04be000000060067
:1006600081002000618055000b003d000b00200040
:1006700061fe2f000100e1001d0034008281710045
:10068000610164008904d1000884d3000000e800ff
:10069000faff3a007100200061006400030070005e
:1006a000020060000900320061044400e0844c0054
:1006b0000988a500050032008b05e8006808e10004
:1006c00002003a008904d1000884d300f20f200010
:1006d0000258e10005003d00c75ddd00f907b200ea
:1006e0008980750008007800000006000bf82700dc
:1006f0008b007800000005000004be004a000700df
:100700000003be000405be000200be004600070054
:10071000844f7500000006000200be006450e10036
:10072000050036006420e100020036000968a300dd
:1007300001003a000800be000160a0004f067800ea
:100740004f05be004f04be0000000600f0ff2f0062
:10075000f1ff2700f9ff3700889fbe008a9fbe0087
:100760008c1f7800e4ff0700ebff330003866c006a
:100770006450e100240032006420e10027003200d0
:100780006150e100220032006120e10021003200ce
:100790008b854200eb07b1000134b800003ab80085
:1007a0000804420089844a00013ab8000030b800c9
:1007b0008880400009014a00040033000000400026
:1007c00081804800020149008b05e900c909dd006c
:1007d000830170000100320013002000c814de0005
:1007e0004814dd004709de001200b200c808de0030
:1007f000088470009aff070001f0a1000cf0a70028
:1008000001f0a000cdff37006120e100cfff3200f2
:100810000801be000200be00f7ff37006150e10092
:10082000fcff3a00c9ff3700c70ade00f107b2003b
:10083000f50fb20008003200e1cf420002003200a2
:100840000170a00024000500810f7000010032003b
:100850000408050044000500810f700002003a0002
:10086000140005008502e9000000400081c0480036
:10087000fcff3b000170a000240005000c00fa0002
:10088000889fbe0000047800f0ff2700d0bf9f00c3
:100890008004eb0099bf9f0088bf9f00a8bf9f0006
:1008a000200c2000b0bf9f0078815700cfb0970088
:1008b00070805700ab0007000fb897000948780018
:1008c0008fb89700088050004f04be000080fa00e7
:1008d00000000600889fbe008a9fbe000084fb00c7
:1008e000d1c6b300814f5000210036004b062000d6
:1008f000110009000b84d8008105780072004000c7
:100900004300dd00098b2000008044006022b80015
:100910000600200007fe23005001be004000be007c
:100920007d090700aa00200000027800811f7800de
:10093000110009008a85d8000002fd00cf00780070
:10094000690242004322dd00048244005403be00d9
:100950004402be0070090700809fbe00110009001c
:100960000a84d800010478004f00be001000370050
:10097000ea4f500013003600a900200011000900c2
:100980000984d80001047800690040004300dd00bc
:10099000098b2000008044006022b800060020007f
:1009a00007fe23005001be004000be005a090700a8
:1009b0004344dd00888444003902be002903be00a0
:1009c000080037004344dd00008b2000080440008d
:1009d0006022b8000600200007fe23003800be0099
:1009e0002801be004c0907004f05be004f04be00a1
:1009f00000000600889fbe008a9fbe00d1c6b300db
:100a0000e04f500025003d000040ea000004fb00dc
:100a1000814f50000b0034004206200011000900f5
:100a20000204d80001007800a9002000110009008c
:100a30000900d800690040004300dd000a8b200057
:100a400023003700ea4f500011003400a2002000bc
:100a5000110009000204d800010478008000780029
:100a6000e9804000c308dd00008b200081004000c9
:100a70004344dd00080040003002be002003be00f9
:100a80005101be004100be002309070032003700bb
:100a90004344dd00008b20002c0037000004fb00e5
:100aa000814f50001c003400420620001100090054
:100ab0000204d80001007800a900200011000900fc
:100ac0000900d800690040004300dd000a802000d2
:100ad000000045003002be002003be008b0920004c
:100ae0008a8545003b00be002b01be000a090700b5
:100af000809fbe00110009000904d800010478009d
:100b00004f00be004344dd00080545003a02be0028
:100b10002a03be00dcff3700ea4f50000900340012
:100b2000a2002000110009000204d800010478008e
:100b300080007800e9804000c308dd0000802000cc
:100b4000caff37004344dd00008020000804400055
:100b50003800be002801be004f05be004f04be0095
:100b6000000006002f05b000889fbe008a9fbe00cf
:100b70008c9fbe008e1f780000037800f1a79f00b5
:100b800082af9f000000eb00f0b79f0006077800df
:100b900077063700ffa097008100e800f1a79f00cb
:100ba00052c2b30082cf520006003a000004eb00ac
:100bb00006c3b30003c2b300b1c2b3007fa0970065
:100bc000120037003e0190000204b200040032001f
:100bd0009e01780085497800030fe8000700370080
:100be0000501fb008e007800020078006c0607000b
:100bf00000017800e10f41005d0632007fb19700ef
:100c00000201e800f2b79f005906370090427800d1
:100c1000d4c2b30084cf52000b0032000001e800c0
:100c200084cf520005003c0083cf520009003200ff
:100c300081cf52000e003a000800370086cf5200e4
:100c40000b003a00070037000830a0000000e80061
:100c5000eeff37000800a000030037000810a000d6
:100c6000010037000820a00002007800e7ff3700ed
:100c7000f0a79f00e2016400010032000800a1001b
:100c8000e8016400010032000820a1008501fb009a
:100c90000303b100e98f51000d003e000000200069
:100ca0007fa197006a00b9000003b1009200fb0029
:100cb00001004000d200fb000103b100e98f5000a9
:100cc000f8ff360090b79f00f2a79f000c00370096
:100cd0000003eb0096b79f00a3c2b30083cf52007e
:100ce00007003a008fab9700c704780087af9f00da
:100cf00099b79f007fa597000a05e800faa79f0013
:100d0000e3c2b300ffa597009bcf11001f003a007c
:100d100008e0a000e8b79f00e4c151008b05e8009f
:100d2000fba79f001b407800834f50000300320058
:100d3000000020008b0178000c0037000fa99700fd
:100d4000c201780082af9f0093af9f007fa29700ff
:100d50000402e800f4a79f00100037006a00b90001
:100d60000003b100020040008301e8001301fb0012
:100d700001fd2f0082804000e98f5000f7ff360010
:100d800090af9f00f3a79f000400370008c0a000a9
:100d9000e8b79f008002eb0095af9f00ccc6b30080
:100da0006fb19700ffa1970033447800a8679f00b8
:100db0008c4f54002b003200e2b79f00f3a79f0036
:100dc000c3c6b300834f540014003c004cc6b300ac
:100dd0008c4f5400e600320009003c00f4c1510081
:100de000834f54002d003200ebc14100834f54006b
:100df000b1003200e04f5400e2053200d30037006a
:100e000063c6b300834f54001c003200e3c14100ad
:100e1000834f5400cd003a00d50037003cc7b300e3
:100e20008c4f54002400320007003c00f3c6b3008e
:100e3000834f5400150032008341e800834f540073
:100e4000c2003a001500370053c7b300834f540067
:100e5000c4003200e3c14100834f5400bb003a009c
:100e600011003700700061000100280001003a0005
:100e70000101200001017100cbff37006fb3970023
:100e800006a0a000e6b79f00b9003700efb39700b7
:100e90000760a000e7b79f00b50037006fb4970068
:100ea0000850a000e8b79f00efb497000970a000b9
:100eb000e9b79f00ae0037000fad97004a047800f5
:100ec0008aaf9f00a8b79f00e00f540002003a00cd
:100ed00020a22000a0b79f008000eb00b1b79f00c8
:100ee0002fb09700bfb097004fb19700dfb19700c8
:100ef000010037008500e800810278006142780037
:100f0000e04f5200fbff3a00a0b79f00b1b79f002f
:100f1000c2b79f00d3b79f009faa9700e08f5200ef
:100f2000050032003fb39700868f52000200310067
:100f300085037800b7b79f00bfb297000006eb00ab
:100f40001fb49700850f54000100360005065400b9
:100f5000efb49700688464002e003a008c0178009a
:100f60000dc2b300100037003e0090000004b20034
:100f7000040032001e0078000d487800000fe800e1
:100f8000050037008e00780000022000840507006d
:100f9000e10f4000030032007fb597000a05e8002a
:100fa000fab79f008c0178000c06e900e08f510031
:100fb000edff3a00170037003e0090000004b20039
:100fc000090032009e017800080178003240780064
:100fd00080497800030fe80002047800e04f5000d9
:100fe0000a003a0011003700080178003200fb00c7
:100ff000020478008e00780086bf9f006805070015
:101000000fbb9700e10f4000080032008d06e8009a
:1010100006003700ffb69700080378002fb497004a
:10102000bfb497004fb59700dfb59700090078006f
:101030008004e900e00f5000dfff3a00fdb79f0099
:10104000a8b79f00b9b79f00cab79f00dbb79f0042
:1010500006047800e00f5400450532001100370007
:101060003e0090000004b200040032001e00780030
:101070000d487800000fe800050037008e0078006a
:101080000002200046050700e10f40000300320087
:10109000ffb097008100e800f1b79f0008067800d4
:1010a000010037000dc2b3000c04e900e00f560048
:1010b000ebff3a002e0537000fa997004204780095
:1010c00082af9f0008027800cfa2de0005037800ff
:1010d00086037800d4af9f00e5af9f00f6af9f0076
:1010e00087b79f000605be000404be004844de002a
:1010f000c84add0008847200a8679f006fb397009c
:101100007006630009003200e04f5400070032000f
:10111000e14f440005003200b8679f00c4679f009c
:1011200027002000b7b79f00040037002fdc97008e
:10113000b8679f0019002000b9b79f003afa2f0046
:101140000a854700aab79f0073ff37002bfa2f00cc
:101150008b854700abb79f0010002000b0b79f0001
:101160006dff3700efb09700010cb300e1b79f00af
:10117000087020006fb197000806610096023200e7
:101180000800210008046100020032006300200012
:1011900093af9f006fb297007004620009003200a5
:1011a0000fa897004005be004004be0080af9f001e
:1011b000d8af9f00e9af9f00faaf9f008bb79f00a9
:1011c0000a0037000fa997004200be0082af9f00bf
:1011d000d40607000002be000203be00d4af9f0089
:1011e000e5af9f00f6af9f0087b79f006022b80071
:1011f0006033b8005fa89700efa897007fa9970019
:101200008fb197001906070080027800e08f520026
:101210000c003d005fac9700efac97007fad9700ee
:101220008fb597000bf0a200d8af9f00e9af9f00e9
:10123000faaf9f008bb79f00efb497003900b3005f
:10124000e9b79f000004eb00b8979f006022b80048
:101250006033b8005fa89700efa897007fa99700b8
:101260008fb197006506070080027800888f5200d2
:101270003b0032005fa89700efa897007fa9970076
:101280008fb197009b07070062fa2f000f01410002
:101290001e0707003f9397000603e9006333b90078
:1012a000a8002000809fbe00110009000803d8009c
:1012b000000378004f00be00b6979f00e00f530078
:1012c00002003d000603e900b6979f003f96970095
:1012d0008c41ea0003407800c6fd07005faa970032
:1012e000efaa97007fab97008fb397000a0707001c
:1012f0000002be000203be00a4a79f00b5a79f0086
:10130000c6a79f00d7a79f006022b8000600200054
:1013100007ff2300d505070080027800e08f520008
:1013200002003d000c04e9000c0037006022b80008
:1013300006002000470224002fa09700bfa09700be
:101340004fa19700dfa19700cd050700800278002c
:10135000e08f5200020035000c04e800b8979f00af
:101360009faa9700f88f52000f003c0005407800bc
:1013700058fd07000002be000203be005fa89700f0
:10138000efa897007fa997008fb197003a05070053
:101390000004be000205be00d8af9f00e9af9f0069
:1013a000faaf9f008bb79f003f969700e90f56005a
:1013b00016003c006022b8006033b8005fa89700b8
:1013c000efa897007fa997008fb197000b06070041
:1013d00080027800e08f5200350032005fa897004d
:1013e000efa897007fa997008fb197006c060700c0
:1013f000e00f5000e08f5800e00f5900e08f5900d7
:101400002b003a00e10f56002900340004002000b0
:1014100005002e00b6e02200170124002fa097003f
:10142000bfa097004fa19700dfa197008f0507008d
:1014300080027800e08f520002003d0073045600e5
:101440000100370072045600b8979f006f60970044
:1014500068fd07000002be000203be00a4a79f00b3
:10146000b5a79f00c6a79f00d7a79f005fa89700ba
:10147000efa897007fa997008fb197008505070017
:1014800047060700a0b79f00b1b79f00c2b79f00f3
:10149000d3b79f006000b8006011b800d0af9f00c4
:1014a000e1af9f00f2af9f0083b79f0019003700a4
:1014b0005fa89700efa897007fa997008fb19700ca
:1014c00037060700a0b79f00b1b79f00c2b79f00c3
:1014d000d3b79f00630607000002be000203be00f0
:1014e0005fa89700efa897007fa997008fb197009a
:1014f000fe0607000004be000205be00d8af9f0034
:10150000e9af9f00faaf9f008bb79f000004eb008c
:10151000b8979f0013c0b300a3679f0001962000f7
:10152000100037000200fb004300dd000080400097
:101530003002be002003be002fb49700bfb4970056
:101540004fb59700dfb597000440e10005c8e10002
:1015500006d0e10007d8e100050039000241e800ab
:10156000a2679f002f619700f44f5100edff3a00f2
:1015700002437800bf9397009fb49700878354007d
:101580001fad97008a8353000603fb0006835300b8
:1015900096b79f00e00f5500020032000603e900f5
:1015a00096b79f00efb59700638365000300320094
:1015b0001fb097000000e90090b79f00efb09700c0
:1015c00064836000480032006284600061866000cd
:1015d000e00f5400190032003e0390000604b200f0
:1015e000080032009e067800b8c2b300e00f560033
:1015f0000100320008c4e800884e78000d0fe800b2
:101600000a003700d8022000e00f560001003a001f
:101610000884e9008e00780008007800e0030700e5
:1016200080027800e18f4200270032007fb19700ee
:101630000201e800f2b79f0023003700e00f5600d8
:10164000210032003e0390000604b2000500320083
:101650001e04780003c2b300034c7800080fe800b2
:10166000060037008e00780000022000cc0307003f
:1016700080027800e18f420013003200ffb1970032
:101680008301e800f3b79f000f0037003e00900091
:101690000004b200040032001e0078000c487800fc
:1016a000000fe800050037008e00780000032000de
:1016b000bb030700e10f4000010032008d06e80087
:1016c0000804e900030037000cc3b3001fb49700ff
:1016d000ffb69700e00f5400ecff3c0098b79f0066
:1016e000fdb79f007a0037006fb297006803620071
:1016f00017003a000f0037003e0090000004b200cf
:10170000040032001e0078000c487800000fe8004a
:10171000050037008e00780000022000a0030700bb
:10172000e10f4000010032008d06e8000804e900e6
:10173000030037000cc2b3001fb49700ffb6970038
:10174000e00f5400ecff3c0098b79f00fdb79f00ee
:10175000efb297006284620061866200e00f54007d
:10176000190032003e0390000604b2000800320067
:101770009e067800b8c2b300e00f560001003200a8
:1017800008c4e800884e78000d0fe8000a00370012
:10179000d8022000e00f560001003a000884e9005a
:1017a0008e007800080078007d0307008002780032
:1017b000e18f4200460032007fb397000603e80045
:1017c000f6b79f0042003700e00f5600400032009d
:1017d0003e0390000604b200050032001e047800ab
:1017e00003c2b300034c7800080fe800060037007e
:1017f0008e00780000022000690307008002780054
:10180000e18f420032003200ffb397008703e80007
:10181000f7b79f002e0037003e0190000204b2008f
:101820000300fb00e00f5100120032001e0678009a
:101830004300dd00008046003002be002003be00f1
:101840000800be000a01be00f9060700a40020003f
:10185000050020006033b800fc0607000203be004c
:101860000002be0000c3b300004e42000c0fe800af
:10187000130037004300dd00008046003002be0048
:101880002003be000800be000a01be00e8060700f3
:10189000a4002000050020006033b800eb0607001c
:1018a0000203be000002be000403b0008e007800f8
:1018b000040078003a030700e10f400009003200fd
:1018c000ffb097008100e800f1b79f0005003700e6
:1018d0000d9620002fb49700bfb497004fb5970026
:1018e000dfb597002f6097008041e900a3679f0054
:1018f000e04f5000c8ff3a00110037003e00900052
:101900000004b200040032001e0078000c48780089
:10191000000fe800050037008e007800000320006b
:101920001f030700e10f4000010032000804e80037
:101930003f9097000000e900b0979f000200370039
:101940000cc3b3007fb497003f909700e00f5000a6
:10195000eaff3c00f8b79f001fa9970023c1b3001e
:10196000f20f510001003c00afd19700a3679f0028
:101970002f6497008802fb001faa9700850252007f
:1019800095af9f00e04f540011003200be0290005e
:101990000504b200050032001e047800e3c2b30063
:1019a000034c7800080fe800060037008e0078002e
:1019b000e0022000fa02070080027800e18f420076
:1019c00003003200ffb297008502e800f5b79f00e0
:1019d0002f60970007fc07000002be000203be0054
:1019e0005fa89700efa897007fa997008fb1970095
:1019f00049050700ea040700a0b79f00b1b79f00a0
:101a0000c2b79f00d3b79f000d9620003f0037005c
:101a1000be0190000304b2000401fb00e08f5100fe
:101a2000120032001e0678004311dd0002814600dc
:101a30003202be002203be002fb09700bfb0970055
:101a40004fb19700dfb1970079060700a40020008e
:101a5000050020006033b8007c06070009c3b3000e
:101a6000094e40000c0fe800160037004311dd005e
:101a7000028146003202be002203be002fb0970052
:101a8000bfb097004fb19700dfb19700680607001d
:101a9000a4002000050020006033b8006b0607009a
:101aa0000203be000002be000403b0008e007800f6
:101ab00004007800ba02070000017800e10f41003d
:101ac000030032007fb597000a05e800fab79f00cf
:101ad000af6597000b01fb004311dd00028146005a
:101ae0003202be002203be002fb09700bfb09700a5
:101af0004fb19700dfb1970054060700a0b79f00d1
:101b0000b1b79f00c2b79f00d3b79f002f61970066
:101b10000242e900a4679f00e04f5100bcff3a0079
:101b20000f0037003e0090000004b20004003200b5
:101b30001e0078000c487800000fe8000500370010
:101b40008e0078000003200095020700e10f40009e
:101b5000010032008d06e8000804e90003003700a8
:101b60000cc3b3001fac9700ffb69700e00f540002
:101b7000ecff3a00fdb79f00efb29700688162006a
:101b80007b0232001fb39700e00f5300780234004d
:101b900008c2b300060678003e0090000004b200c0
:101ba000040032001e00780008487800000fe800aa
:101bb000050037008e007800000220007802070040
:101bc000e10f4000010032008d06e8000c06e9003c
:101bd000f1ff3a0065023700efb29700050cb20042
:101be00043003a00efb39700e08f530005003d003b
:101bf0000fa897004005be004004be0080af9f00c4
:101c000010003700efb09700f08260001200320041
:101c10000faa97004401be0084af9f00a29f9f00bf
:101c2000b39f9f00140490004fc4de00c89f9f0024
:101c3000d89f9f002f9c9700bf9c97004f9d9700b7
:101c4000df9d9700a8b79f00b9b79f00cab79f0054
:101c5000dbb79f000b0037008fac9700c9027800fc
:101c600089af9f0005007800cf80de000101780079
:101c700082017800a0b79f00b1b79f00c2b79f0054
:101c8000d3b79f002fb29700bfb297004fb3970012
:101c9000dfb39700e00f5200e08f5a00e00f5b00c7
:101ca000e08f5b0038003d00efb297003500b300d5
:101cb000e5b79f006044b8006055b8002fb09700aa
:101cc000bfb097004fb19700dfb1970000005400fc
:101cd00081805c0002015d0083815d00a0b79f00f0
:101ce000b1b79f00c2b79f00d3b79f00260037004f
:101cf000efb09700e08f500005003d000fac97005b
:101d00004803be004802be0088af9f000e003700a7
:101d1000efb49700f0826400100032000fa8970023
:101d20004005be0080af9f00ea979f00fb979f0091
:101d30008c9f9f009c9f9f006f929700ff9297003f
:101d40000f9b97009f9b9700a4b79f00b5b79f007c
:101d5000c6b79f00d7b79f000b0037000fab9700a7
:101d6000c602780086af9f000504780009002000b5
:101d70000a0020000b002000a8b79f00b9b79f0001
:101d8000cab79f00dbb79f009fac9700e08f54005d
:101d90000d003a001a0020009aaf9f002fb0970064
:101da000bfb097004fb19700dfb19700e00f500030
:101db000e08f5800e00f5900e08f59000200320018
:101dc0008000eb0091af9f006fb19700020cb20052
:101dd000d2af9f0008042000880f51003f0032005e
:101de00003003c00e00f51000800320056003700ad
:101df00005082000dfa99700858f51001b003200e5
:101e0000050c2000858f51004f003a0013c0b3002d
:101e1000a3679f0001962000100037000200fb001e
:101e20004300dd00008040003002be002003be0001
:101e30002fb49700bfb497004fb59700dfb5970058
:101e40000440e10005c8e10006d0e10007d8e10048
:101e50003d0039000241e800a2679f002f61970012
:101e6000f44f5100edff3a003700370013c0b300c4
:101e7000a3679f0008012000090020006055b800fa
:101e8000120037002fb29700bfb297004fb39700f0
:101e9000dfb397000820e10009a8e1000ab0e100e3
:101ea0000bb8e10028003900450020000804d000ec
:101eb0008984d2000a85d2008b85d2008502e90090
:101ec000faff3a000040e800a0679f002f609700eb
:101ed000f04f5000ebff3a001b00370013c0b30077
:101ee000a3679f0088002000090020006055b8000b
:101ef000120037002fb29700bfb297004fb3970080
:101f0000dfb397000820e10009a8e1000ab0e10072
:101f10000bb8e1000c003900350020000804d000a7
:101f20008984d2000a85d2008b85d2008502e9001f
:101f3000faff3a000040e800a0679f002f6097007a
:101f4000f54f5000ebff3a002f6397000604fb00ab
:101f50009fab9700870f540002003d00a7679f00ca
:101f6000040037009fac9700888f540001003d00ab
:101f700098af9f001fb59700e00f55000500320095
:101f8000efb59700e3826500020032000a05e90020
:101f90009ab79f00050024006fb09700850260008b
:101fa000090032009fb097001fa99700828f500050
:101fb000030034008280500091b79f000200370078
:101fc0008001eb0093b79f002f6297000404fb0091
:101fd0008002eb00e5a79f001fb39700880f530016
:101fe0000200340008045300e8a79f00efb39700f5
:101ff000e4826300490032006283630007047800d2
:10200000e1036400e00f530019003200be029000ab
:102010000504b200080032001e067800b6c2b30004
:10202000e08f53000100320006c3e800064e78003e
:102030000c0fe8000a003700d6022000e08f5300a2
:1020400001003a000683e9008e007800060078005f
:102050005301070080027800e18f42001700320030
:10206000ffb497008904e800f9b79f001300370018
:10207000e08f530011003200be0290000504b20050
:10208000050032001e03780003c2b300034b780042
:10209000060fe800060037008e00780000022000de
:1020a0003f01070080027800e18f42000300320008
:1020b0007fb597000a05e800fab79f00efa59700e3
:1020c000e08f5500050132000cc3b3000b0478000b
:1020d000ffb697003e0090000004b20004003200fa
:1020e0001e0078000c487800000fe800050037005b
:1020f0008e0078000003200029010700e10f400056
:10210000010032008d06e8000804e900f1ff3a0002
:10211000e8a79f00fdb79f00f00037006fa0970071
:10212000e00f500017003200efb09700e882600027
:1021300014003a000cc2b30000047800ffb6970008
:102140003e0090000004b200040032001e0078003f
:102150000c487800000fe800050037008e0078007a
:10216000000220000e010700e10f400001003200d4
:102170008d06e8000804e900f1ff3a00e8a79f0097
:10218000fdb79f006fb1970062036100e10361003a
:10219000e00f530019003200be0290000504b200a7
:1021a000080032001e067800b6c2b300e08f53006c
:1021b0000100320006c3e800064e78000c0fe8006c
:1021c0000a003700d6022000e08f530001003a00d9
:1021d0000683e9008e00780006007800f000070012
:1021e00080027800e18f4200bc003200ffb197000e
:1021f0008301e800f3b79f00b8003700e08f530079
:10220000b6003200be0290000504b20005003200a4
:102210001e03780003c2b300034b7800060fe800ea
:10222000060037008e00780000022000dc00070066
:1022300080027800e18f4200a80032007fb2970050
:102240000402e800f4b79f00a40037000e07e9007d
:1022500000042000dfaa9700808f52007a0032002d
:1022600003003c00e08f5200080032008600370077
:10227000000820005fab9700800f53005d00320024
:10228000000c2000800f53007f003a004370dd00f7
:10229000efb39700e08f530022003d000896200026
:1022a000000044003002be002003be0094af9f0037
:1022b000a5af9f00b6af9f00c7af9f002fb097009c
:1022c000bfb097004fb19700dfb1970058040700e7
:1022d000a0679f000004fb00cfc4de000905780062
:1022e0008a0578001faa9700afaa97003fab970016
:1022f000cfab97000800be000a01be00b80407007b
:102300002fb49700bfb497004fb59700dfb5970083
:102310000004540081845c0002055d0083855d003b
:102320001d003700df949700e08f54001f0032003b
:102330002fb69700bfb697000a9620000000450010
:102340003004be002005be000801be000c00be0027
:1023500093030700a0679f000000fb00cf80de0012
:102360000801be009e0307000001560081815e0047
:10237000e29f9f00f39f9f008001eb0083a79f00d7
:102380000002eb0094a79f006f9c9700ff9c9700b2
:102390000fa597009fa59700a8b79f00b9b79f000a
:1023a000cab79f00dbb79f000e00370009962000d8
:1023b000690178002fb59700811f7800110009008e
:1023c0000285d800cf007800a2002000811f78008d
:1023d000110009000280d80001007800cf007800c9
:1023e000a0679f00af6597000b43b000ab679f00ed
:1023f0002500370004a020004f909700e00f500008
:1024000001003a0014a120004270dd002fb49700b3
:10241000bfb497004fb59700dfb5970080027800f2
:102420008502e900050033008b05d1000a85d30041
:102430008984d3000884d300f9ff37006f0064005b
:10244000644078000f0037006370b9002fb4970024
:10245000bfb497004fb59700dfb597000002780032
:102460000402e900050033008b05d1000a85d30082
:102470008984d3000884d300f9ff370067406400e3
:102480000043b000a0679f009fb297003500900006
:102490000004b20007003200150178002f60970099
:1024a00000497800820ae800e04f500007003a0037
:1024b000130037002f6397000600fb009fb09700c2
:1024c00037000700e10f40000d003200ffb3970016
:1024d0008703e800f7b79f00090037006fb4970043
:1024e00070046400d8979f00efb497000902b2000f
:1024f000c9979f000e0578009ab79f001faf9700fd
:10250000e00f570051ff3a001fb79700efb5970053
:1025100068816500160032006fa09700e00f500040
:102520001300340008c2b30000067800ffb697001d
:102530003e0090000004b200040032001e0078004b
:1025400008487800000fe800050037008e0078008a
:102550000002200012000700e10f400001003200dd
:102560008d06e8000c06e900f1ff3a00fdb79f0078
:10257000ffa0970091427800a5679f00e0cf52002e
:1025800084f93a007fb097004f0778004f06be00ed
:102590004f05be004f04be002f05b100000006002d
:1025a000889fbe0001047800b8009000628160003e
:1025b0008084eb003c003200810178000320b200ef
:1025c0001801900002003a00e00f510036003a0076
:1025d0000190a0003104980080047800f90fb20047
:1025e000e00f510002003a0028009000000c780033
:1025f000ea8f540006003a00010078000008b2009b
:1026000003003a0088007800d0002000e4ff0700b3
:1026100018009000d8009000810f50000b0032008d
:102620000000e800100498001800780009487800bd
:10263000000ce80010c0b30001a52000804878001d
:10264000ea8f540018003a0005003700880078002f
:102650000940780017000700800478001200370056
:10266000380090000010b2000f00320018019000f6
:10267000a8009000480090005000070098009000cb
:10268000810f500004003200380090000003b300b6
:10269000300498008084eb000000eb0010049800e8
:1026a00028009000000c7800090078004f04be005c
:1026b000000006000200fa00889fbe00a0ff9f00f5
:1026c0000104780038009000800078000104b20016
:1026d00033003a00e200600005003a000003b30056
:1026e00030049800110498000080eb002e003700a1
:1026f000d8049000e08f540006003a001200200039
:10270000e6805700480090002c000700190498004c
:1027100023003700a8009000e08f500008003a0026
:1027200031a5200021049800010c78002100200030
:1027300051049800110498000030a0003004980063
:1027400018019000a8009000480090001b000700ae
:10275000280090008080eb0011049800aff89700eb
:1027600001487800000ce8002ff89700ea4f50006d
:102770000b003a00380090000010b2000800320050
:1027800018019000a8009000480090000b0007007e
:102790000000eb0010049800a8009000010c7800e5
:1027a000aff897000100fb004f04be000080fa0064
:1027b0000000060000c0da00000006000a00fa006f
:1027c000e20f500021003e00b0528000e10f5000a7
:1027d00006003200e5212000a421200083212000f2
:1027e00060212000e08f520004003a0045212000c3
:1027f00004212000e3202000c02020000600280043
:102800009003630002003a00870a78001008730002
:10281000004020001300600001003a0013a0a00057
:102820000200780006003700930278000510b2001d
:10283000fdff3200b102fb00050a78000000e9004c
:10284000e00f5000f8ff3a00080037003300200086
:10285000b3bf9f00c0bf9f00d1bf9f00e2bf9f00da
:102860006a805700d3ff07006fb997000200780015
:102870000080fa00000006002800fa00889fbe00d1
:102880008a9fbe008c9fbe0007067800878669007d
:102890000c003b00030478008704780008f0a100d6
:1028a00009f0a100840f5000858f5800860f590051
:1028b000890f5c00030033000cf0a20001003a0015
:1028c0000cf0a100fe0007006400e1005f00320090
:1028d000780147006408e100610032006c014700a4
:1028e000748557003200be001201be003a04be00db
:1028f0001a05be001e039000be0a90008503530017
:1029000006003d000004fd008104fd000205fd00fd
:102910008305fd008703ea00050378000df8a30096
:102920000400320060041400e0841c0060051d00f7
:10293000e0851d006022b8007d0320000d38e10015
:102940008006eb000b0039004433dd00f300b200d9
:102950008301730039003700848272000d02780011
:10296000e10664008b85d1000a85d3008984d300f9
:102970000884d3008703e900f7ff3b00080040000c
:10298000898048000a0149008b81490004003b000e
:1029900060001000e080180060011900e08119005b
:1029a0000358a300090032008d82720084827200f5
:1029b000610260008301d1000281d3008180d300d5
:1029c0000080d3000603e8001b0037000348a30083
:1029d00017003a000600e000170034000603e90083
:1029e0000d00a3000000480081804800020149005a
:1029f000838149000348a3000f003a000600e0006d
:102a0000090034000603e90000004000818048000e
:102a1000020149008381490001003a000003eb00f4
:102a20000348a300f5ff32006022b800020037001f
:102a300084827200618266007500070003f0a100c5
:102a40000cf0a70003f0a000b100370064014700bc
:102a50006408e10002003a000df8a300a9003a0062
:102a60003200be001201be00a90037008f1fd10046
:102a7000110307008f87e9000000e0000000060056
:102a8000809feb000c0307008f87e9000000e00047
:102a9000000006002800fa00889fbe008a9fbe0042
:102aa0008c9fbe0003866b00850007006400e10078
:102ab000440032006408e1004a0032006100e10095
:102ac000460032006108e10049003200ec06470090
:102ad0006000b8003d02be003d03be00f486570012
:102ae0006011b8003d04be003d05be007d0320001e
:102af0000b0037000000a0008d06e9001300320033
:102b00000402420085824a0006034b0087834b0083
:102b10000000400081804800020149008381490093
:102b20000802520089825a000a035b008b835b0013
:102b3000f0ff3b000802420089824a000a034b0072
:102b40008b834b008d06e900edff3a008482720012
:102b500086827200f707b20087827200010032009d
:102b6000150020001e0490003e0b90000603540048
:102b7000e63fb0000368a300070032000000a70092
:102b80000500a0008301d1000281d3008180d30021
:102b90000080d3000603e8008301d1000281d30046
:102ba0008180d3000080d3000002eb000482d200b9
:102bb0001700070003f0a1000cf0a70003f0a0002d
:102bc00053003700640247006408e1004d00320002
:102bd0003400be003401be00f6ff37006108e1009a
:102be000480032006011b8006000b800f1ff370003
:102bf00003ff270002002000fbff3700801feb00cf
:102c0000ad0207008f87e9000000e0000000060029
:102c10001800200057002000080453000d003d005c
:102c20000600200097fc2f000740e1001e00340042
:102c300084827200610260008301d1000281d300ae
:102c40008180d3000080d3000804e800f8ff3a0038
:102c5000470020006104600005047400040464005f
:102c60000d00320061004000e08048006001490032
:102c7000e081490003b8a500070032000603e80020
:102c80006538e10004003a008301d1000281d300dd
:102c90008180d3000080d300f87f20000830e1005d
:102ca00003003500080378006000b8006011b80028
:102cb0004433dd00f300b20083017300000006001e
:102cc000680447000294be000094be00fc04470064
:102cd0008694be008494be0009007800bf020700fd
:102ce00008007800bd02070099007800814f70004d
:102cf0000b003b000800be00980207004f00b10027
:102d000003003700f3ff2700f2ff2f006110b90026
:102d10004f06be004f05be004f04be000080fa0003
:102d20000000060081037800bff607000001be0026
:102d30006000b8000478a30013003a006220e100ac
:102d400015003e000d0039008301d1000281d3003f
:102d50008180d3008301d1000281d3008180d30020
:102d60008301d1000281d3008180d3000538b000f7
:102d7000c42add00f300b2008381720007f0a700cf
:102d800003f0a00000000600f3ff2700f2ff2f0071
:102d90006110b900fbff370003ff2700f7ff370082
:102da0001400fa00889fbe008a9fbe008c9fbe0060
:102db0000004be000205be00680047000a90be0085
:102dc0000890be00850207000070a7000bf0a1006c
:102dd0000bf8a30020003a009e0990000e09900015
:102de000fe0090006e0090009e0290003443200090
:102df00084825200c6ff32000a003c00b4fc2f005f
:102e00000428e100140034008301d1000281d300c2
:102e10008180d3000080d3008502e800faff3a00e9
:102e2000bbff3700b40020000428e10007003c008d
:102e30000000400081804800020149008381490070
:102e40008502e900faff3a00b1ff370003002800cd
:102e500002002000010037006011b8006000b800d7
:102e6000abff3700889fbe00008270000402710033
:102e70002400320036432000c50020008383cf00a9
:102e80000a0039000541b1008283cf0007003900f4
:102e90000541b1008183cf00040039000541b10034
:102ea0008083cf00010039000541b10085c3530084
:102eb0006022b800120032000a003b0084827200d7
:102ec000610260008301d1000281d3008180d300c0
:102ed0000080d3000603e8008743e800f7ff3a00cc
:102ee00007003700000040008180480002014900cf
:102ef000838149000603e9008743e900f9ff3a00ae
:102f000043ff07004f04be0000000600dd0107007c
:102f100005097800000006002800fa00889fbe001e
:102f20008a9fbe008c9fbe0003866b0064ff070073
:102f30000028a30064003a000128a30067003a00bb
:102f40000008a30062003a000108a30065003a00ef
:102f50001e009000be08900081064000ed3fb100c9
:102f6000f4805700ee019000111ab8008e0990000d
:102f7000311bb8009e099000311cb800511db800eb
:102f8000f485570046000700fe0190003a00070054
:102f90008b85e8003e0007008e0990004000070086
:102fa000ee019000340007008b85e8003800070030
:102fb0008e099000400007009e0990001b18b80081
:102fc000890440000a854800fe0190003400070093
:102fd0008b85e80038000700ee0190003000070004
:102fe0008e0990001b18b800890440000a8548002b
:102ff0000a98a30008003a000402420085824a00b1
:1030000006034b0087834b0008044c0089844c0066
:103010000a054d008d06e900848272008502730066
:103020004c3add00850272000100320015002000dc
:10303000443ade001400b2004538de00cb45dd0026
:103040000b007000c540de00cb4ddd008b807000b2
:103050004549de00cb55dd000b017100c551de0096
:103060000d037800eafe070003f0a1000cf0a700b2
:1030700003f0a00026ff37001b18b80085024000af
:1030800006834800e0834b0060044c0007003700d3
:103090001b18b8000603400087834800faff37007a
:1030a0001b18b8008703400008844800e0844c00e7
:1030b00060054d00000006001b18b8000804400021
:1030c00089844800faff37000108a3000dff3a0089
:1030d0005800be005801be00e3ff37000008a300ff
:1030e00008ff3a0009047800f9ff370007f0a20052
:1030f000e1fd37001400fa00889fbe008a9fbe00e1
:103100008c9fbe000005be000206be00680047009e
:103110000c90be000a90be00b00107006400e10000
:103120001a00320016003e006100e1001a00320071
:103130006e049000fe0490000e0b90009e0b900019
:103140006011b8009e0590000b38b100d501200039
:1031500082817100610164008703d1000683d3007e
:103160008984d3000884d3008502e900f8ff3a007f
:103170003bf507000df0a70001f0a000e4fe3700ca
:10318000f1ff2700f0ff2f00e1fe370001f82700d4
:1031900000002000f7ff37006000b800f5ff37009f
:1031a0006022b800060220000000d0008180d2001a
:1031b0000482d2008582d2000000a00002025200e8
:1031c00083825a00030031000202420083824a00d7
:1031d0000000a1000603e900f3ff3a00000006002a
:1031e000020ab900001bb9000200b80081004200c9
:1031f0008100430000000600889fbe008a9fbe0039
:103200003004be002005be000404440085844c0048
:1032100006054d0087854d000898be000a90be0047
:103220000440e10005c8e10006d0e10007d8e10054
:1032300002003100680040001008e8004f05be00a1
:103240004f04be0000000600889fbe008a9fbe009b
:103250008c1f7800000678003c04be002c05be00e0
:103260000400540085805c0006015d0087815d00dc
:10327000009ebe00029ebe00100020000440e1003f
:1032800005c8e10006d0e10007d8e10001003900df
:103290000000eb001c0e10004f0678004f05be002a
:1032a0004f04be00000006001200fa00889fbe0016
:1032b0008a9fbe008c9fbe000205be000004be00b7
:1032c000e4b79f00f5b79f0086bf9f0097bf9f00a0
:1032d0000000eb00d0b79f00c0b79f00b0b79f00c1
:1032e000a0b79f0090b79f0000067800fd03200064
:1032f000dfb197004fb0970003814100bfb0970046
:10330000e08f510004003d00290007007e80570037
:10331000b9ff070003003700250007007e80570033
:10332000c9ff0700dfb09700e08f500007003500ad
:1033300014002000050020006033b800080472006b
:10334000898472000a0573008b8573000c06e800ff
:103350008d0f5600e6ff3400e08f500006003d0060
:103360006fb29700ffb297000fbb97009fbb97000b
:103370007e805700a0ff07005fa89700e00f500075
:1033800004003a001fb49700afb497003fb5970010
:10339000cfb597000800be000a01be004f06be0070
:1033a0004f05be004f04be000080fa00000006007a
:1033b000cf01de0002817100b2b79f004f09de002d
:1033c0000000400000007100a0b79f000fb0970000
:1033d0004f01de00818040008100710091b79f00a5
:1033e0007faa9700cf20de00000040000080700020
:1033f00080b79f000800be000a01be004f18de0023
:103400000402420000027200f4af9f00080444006e
:1034100089844c000a054d008b854d004fb2970002
:10342000dfb297006fb39700ffb39700000006006c
:10343000881f780018002000881f78009aff070076
:103440008f87e9004f04780000000600801feb0022
:1034500095ff07008f87e90000000600889fbe00e7
:103460008a9fbe008c1f7800e00f5000e08f58004c
:10347000e00f5900e08f59000f003d006044b80094
:103480006055b8000000540081805c0002015d00be
:1034900083815d001c0020000820e10009a8e100f4
:1034a0000ab0e1000bb8e1000d003d001900070073
:1034b0000006eb000a0037000006eb00e00f5200a8
:1034c000e08f5a00e00f5b00e08f5b0004003d00de
:1034d0006044b8006055b8000e0007001c002000d2
:1034e000d3ff0700e00f5600060032006022b8004c
:1034f0006033b8000000520081805a0002015b0076
:1035000083815b004f0678004f05be004f04be006c
:10351000000006000402540085825c0006035d0082
:1035200087835d0000000600889fbe008a9fbe0062
:103530008c1f7800e00f5000e08f5800e00f59001a
:10354000e08f59000d003d006044b8006055b800a0
:103550000000540081805c0002015d0083815d00f9
:103560001c0020000820e10009a8e1000ab0e100e9
:103570000bb8e1000d003d00080037000006eb002d
:10358000e00f5200e08f5a00e00f5b00e08f5b001d
:1035900006003d006044b8006055b80004025400c5
:1035a00085825c0006035d0087835d00a7ff07003e
:1035b000e00f5600060032006022b8006033b80009
:1035c0000000520081805a0002015b0083815b0091
:1035d0004f0678004f05be004f04be0000000600f5
:1035e000889fbe008a9fbe008c1f78000006eb00fb
:1035f000e00f5000e08f5800e00f5900e08f5900b5
:1036000007003d006044b8006055b8000000540059
:1036100081805c0002015d0083815d001c00200050
:10362000e00f5200e08f5a00e00f5b00e08f5b007c
:1036300007003d006044b8006055b8000402540023
:1036400085825c0006035d0087835d000c00a2009c
:1036500089000700e00f5600060032006022b80023
:103660006033b8000000520081805a0002015b0004
:1036700083815b004f0678004f05be004f04be00fb
:10368000000006000003be0067f407006220e100ae
:10369000020032000600be0005000500e507b1008b
:1036a000f107b20004f023008480700007f0a70047
:1036b00001f0a00024000500889fbe008a9fbe0084
:1036c0008c9fbe000404be000605be00809fbe00a5
:1036d000829fbe002f000700040678000800be008d
:1036e0000a01be002b000700840678004f03be00cd
:1036f0004f02be008d4f76007fb09700130033005d
:10370000f0ff2f008b8f6b0006003b000d0666005c
:103710000c00a7000a00370007f0a60010002000e8
:103720000a003700880f5200898f5a008a0f5b0009
:103730008b8f5b00030039001000200001003e0069
:103740000000200007f0a7000000ea004f06be00be
:103750004f05be004f04be0000000600e48240009a
:103760001078a30007003200640240001178a30023
:103770003400be001401be00040032000330a70074
:10378000000006003500be001501be000330a00099
:103790000000060005ff27000582610007003200d7
:1037a0000428e100010032002400050006000700a3
:1037b00001003a004400050004080500020007006b
:1037c000f9ff3a00140005006f8261008102700069
:1037d00085027100850272000000060080007800fa
:1037e0005002be005003be004439de00f700b200b4
:1037f000f37f200003016100090032000218e1009c
:1038000016003a0085017200830173008381730002
:103810000008200015003a00400020001300370087
:1038200085017200830173008381730005003a00f3
:1038300004a8be0006a8be00100020000b00370040
:103840000201e9000402420085824a0006034b009f
:1038500087834b000748a300f9ff32000740a00010
:1038600004a8be0006a8be0020002000800098002a
:103870009200980000000600889fbe008a9fbe004c
:103880008c9fbe000404b8000506b80089044600f9
:1038900060854e000606b8000a054600e0854e0029
:1038a0000706b8008b054600040eb80089044600e0
:1038b0000a854e00e0854d00050eb8000a05460059
:1038c0008b854e00060eb8008b0546000416b80026
:1038d0000a0546008b854e000516b8008b0546008c
:1038e000041eb8008b0546000800be000a01be0099
:1038f0004f06be004f05be004f04be00000006008c
:020000040000fa
:103900002532000064df000043200000202000007a
:103910002025000033640000df4600002020000066
:1039200020200000202000002020000000250000b2
:10393000352e000032660000df4300002025000025
:10394000362e000032660000df4600002020000016
:043950002000000053
:020000040000fa
:10395400000a00002a00000002000000303132009a
:10396400333435003637380039414200434445008a
:1039740046003000313233003435360037383900f0
:10398400616263006465660000286e00756c6c00fb
:103994002900000060090000a000000002000000ef
:1039a400010000000000000000000a000000000008
:1039b400000000000064000000000000000000009f
:1039c400e8030000000000000000100027000000d1
:1039d4000000000000a086000100000000000000bc
:1039e40040420f0000000000000080009698000094
:1039f400000000000000e100f505000000000000e8
:103a040000ca9a003b00000000000000e40b5400d0
:103a1400020000000000e8007648170000000000e3
:103a24000010a500d4e8000000000000a0724e00c1
:103a340018090000000040007a10f3005a0000004a
:103a44000080c600a47e8d000300000000c16f004a
:103a5400f2862300000000008a5d780045630100bf
:103a640000006400a7b3b600e00d000000e8890080
:103a74000423c7008a000000000800006001000061
:103a8400020000000000000000000000f03f000001
:103a940000000000000024004000000000000000be
:103aa4000059400000000000000040008f4000006a
:103ab400000000000088c300400000000000000077
:103ac4006af8400000000000008084002e410000dd
:103ad40000000000d01263004100000000008400d8
:103ae400d7974100000000000065cd00cd410000e3
:103af400000020005fa002004200000000801d00c2
:103b0400af1544000000000040593e002946000063
:103b1400000000000000f0007f0000000000000032
:103b240000f07f000000000000000000f07f0000b3
:103b3400000000000000f0007f0000000000000012
:103b440000f07f000000000000000000f07f000093
:103b5400000000000000f0007f00000000000000f2
:103b640000f07f000000000000000000f07f000073
:103b7400000000000000f0003f00000000a09900d9
:103b840099b93f000000000040e17a00843f000042
:103b94000000e0004d6250003f00000000e0e20041
:103ba400361a3f000000000080b5f800e43e000033
:103bb4000000a000f7c6b0003e00000000a0f20024
:103bc400d77a3e0000000000e08e7900453e0000f8
:103bd4000000e0000b2e11003e00000000e0df00ba
:103be4007cdb3d000000000000a19c00c73b0000fe
:103bf400000000004c48b400390000000000200020
:103c04006ca137000000000000000000000000006c
:103c140000000000000000000000000000000000a0
:103c24000000000000000000000000000000000090
:103c34000000000000000000000000000000000080
:103c44000000000000000000000000000000000070
:103c5400000000000000000000000000500a000006
:103c640006000000000000002a0a000026000000f0
:103c740002000000510a000000510a00090000007f
:103c840000020000530a000000530a000e02010063
:103c94000000000000000000000000000602020016
:103ca400000000002a0a0000560a0000020000007a
:0c3cb40002000000010000000000000001
:020000040000fa
:103cc0002a00fa0030179800411798009001070069
:103cd000d642a800d242a9009100070010c0b3004c
:103ce0006801070020c0b300660107002701070034
:103cf0000080fb00000f7800d642a9001e0078006b
:103d00006900b900800078005000200000017800b0
:103d1000110009008200d8000102200080804000cc
:103d200066004700811f78009e1f780001c82900a7
:103d3000811f7800d1f20700e687570020c0b3004a
:103d4000500107006600470039010700d642a8006d
:103d500000ccb3004b010700480007001007980093
:103d60002107980002002000031124001e0090008b
:103d7000ae00900078f2070002002000030a240041
:103d8000c7f10700020020000320240067f10700ac
:103d900066014700809fbe001e009000ae009000ac
:103da000809fbe0070c92900801f78000200780043
:103db000b2f20700ea875700660047001c010700bf
:103dc000caff3700889fbe008a9fbe00e2c2a900da
:103dd000e2a2a800000f2000c622b7000004eb00fa
:103de000800578000a082000e0762100010020000c
:103df000f4000700e282a800c000200001002000bb
:103e0000f000070049168000e282a900e0002000cf
:103e100001002000eb000700e282a800c0002000a3
:103e200001002000e7000700401680008b8464003a
:103e30004400de006f00600080847400e282a9000c
:103e4000e000200001002000de0007000a8064007e
:103e5000030032000804e800fd0f5400e2ff3400c4
:103e6000f0f02f00c622b600e2a2a900e2c2a8002c
:103e70004f05be004f04be0000000600889fbe0034
:103e80008a9fbe008c1f7800c000070000447800a5
:103e9000da00070000cab3008b00070069000700c2
:103ea00000057800d500070010c4b30086000700a5
:103eb000d200070000cab3008300070061000700ba
:103ec000000678000880fb00cf80de00b6f1070016
:103ed0000200200003f0230013f107000004be00dd
:103ee0000a005600cf80de00aff107000005be00db
:103ef0006160b900acf107000001be000a00be001d
:103f000067f107000001be000800be0007f10700ce
:103f10004f0678004f05be004f04be0000000600ab
:103f2000e0dc2d0061002000a6000700000f20004b
:103f3000a822b700f0f02f00aa22b600ca22b600cd
:103f4000e2a2a900e2c2a900e282a900c622b6004c
:103f5000dea2a900dec2a900de82a90030c3b30040
:103f6000c8000700e09e2400210020009500070003
:103f700020c3b300c3000700e09e240021002000fe
:103f80009000070080c2b300be000700c0c0b300ad
:103f9000bc00070060c0b300ba00070010c0b30047
:103fa000b800070020c0b300b600070080c0b3000f
:103fb000b4000700c0c0b300b20007000000060054
:103fc000889fbe008a9fbe008004eb000905780030
:103fd000ab6e2000e80c20008984d100de02a9002d
:103fe000e202a900e0012000c1000700e202a800ef
:103ff000de02a800db0888001421ef0086a0a900db
:10400000a1088000888f5000fdff3600e002ab0061
:10401000010032000970a00002022000310480007b
:1040200082806000fdff32000a05e800e70f5500be
:10403000e9ff3400094078004f05be004f04be0080
:1040400000000600889fbe008a9fbe008004eb002f
:1040500009057800ab6e2000e80c20008984d100af
:10406000de02a900e202a900e0012000a000070092
:10407000e202a800de02a800db0888001421ef009d
:1040800086a0a900a1088000888f5000fdff36009f
:10409000e002ab00010032000970a0000202200023
:1040a0003104800082806000fdff32000a05e800d4
:1040b000e80f5500e9ff3400090078004f05be0005
:1040c0004f04be00000006000002eb00a66e2000b8
:1040d0008002eb00e30c200002022000d6088800da
:1040e000a508880086a0a900de02a900e202a900b6
:1040f000a1088000838f5000fdff3600e1006000c2
:1041000001003200e202a8003104800082806000d9
:10411000fdff3200e202a800de02a8000402e8006f
:10412000e70f520003003c000080fb000000d100bc
:10413000eaff3700e00120006d00070000000600e4
:10414000889fbe00f9f02f008004fd00ca22b6004f
:104150008004fd000004fb0008007800000fb2009e
:10416000ca22b700590007008004fd00ca22b60029
:104170008004fd004440dd00000fb200ca22b700f9
:10418000520007004f04be00000006001b0007009d
:10419000c0c0b300ccff070010c4b300caff0700c3
:1041a00016000700e0ceb300c7ff07002b00070092
:1041b00012000700a0cab300c3ff070080ff07007a
:0441c00000000600f5
:020000040000fa
:1041c400f03fb1000180b10006003500ee030900a4
:1041d40000000000403fb1000180b100fbff3d0042
:1041e4001000b000203fb00002003500008009003c
:0841f4000000000000000600bd
:020000040000fa
:1041fc00de02a900e202a900a09923003900070001
:10420c00e202a800de02a800e00120003500070051
:10421c00e002ab00feff3a00e002ab00feff320012
:10422c0000000600881f7800000478001840780011
:10423c00e04f50000400320018000700584078008e
:10424c00e04f5000fcff3a004f04780000000600dd
:10425c00881f7800c8cab300e5ff07000840780043
:10426c0096ff070053ff0700e04f5000faff3d0098
:10427c004f04780000000600881f78000044780086
:10428c00cdfe0700e2c2a90008407800a9ff070094
:10429c00e2c2a8004f04780000000600881f7800d6
:1042ac0000447800c4fe0700e2c2a8000840780071
:1042bc00a0ff0700e2c2a8004f047800000006002f
:1042cc00c000200001002000bbff0700e282a80014
:1042dc00e000200001002000b7ff0700e282a900e7
:1042ec0000000600d00888001421ef0086a0a90069
:1042fc00010220003004800001006000fdff32004c
:10430c00000006001421ef001aa1ef0000002800a5
:08431c00f00888000000060013
:020000040000fa
:0200000401f009
:04000000f7ff000006
:020000040000fa
:0200000401f009
:04000400ff7f00007a
:020000040000fa
:0200000401f009
:04000800eeff000007
:020000040000fa
:0200000401f009
:04001400ffff0000ea
:00000001FF
